:020000040800F2
:10000000B00B0020910700089D010008A101000825
:10001000A5010008A9010008AD01000800000000CA
:10002000000000000000000000000000B101000816
:10003000B501000800000000B9010008BD0100087A
:10004000AB070008AB070008AB070008AB070008C8
:10005000AB070008AB070008AB070008AB070008B8
:10006000AB070008AB070008AB070008AB070008A8
:10007000AB070008AB070008AB070008AB07000898
:10008000AB070008AB070008AB070008AB07000888
:10009000AB070008AB070008AB070008AB07000878
:1000A000AB070008AB070008AB070008AB07000868
:1000B000AB070008AB070008AB070008AB07000858
:1000C000AB070008AB070008AB070008AB07000848
:1000D000AB0700080D2A0008AB070008AB070008B3
:1000E000AB070008AB070008AB070008AB07000828
:1000F000AB070008AB070008AB070008AB07000818
:10010000AB070008AB070008AB070008AB07000807
:10011000AB070008AB070008AB070008AB070008F7
:10012000AB070008AB070008AB070008AB070008E7
:10013000AB070008AB070008AB070008AB070008D7
:10014000AB070008AB070008AB070008AB070008C7
:10015000AB070008AB070008AB070008AB070008B7
:10016000AB070008AB070008AB070008AB070008A7
:10017000AB070008AB070008AB070008AB07000897
:10018000AB070008AB070008DFF80CD009F04EFE03
:100190000048004745030008B00B0020704700BF2F
:1001A000FEE700BFFEE700BFFEE700BFFEE700BFBF
:1001B000704700BF704700BF704700BF7047000026
:1001C00082B04EF6885CCEF2000CDCF8002043F6DC
:1001D000000142F47002C4F20201CCF800200A6867
:1001E0004FF6FF7042F001020A6000228A600B683D
:1001F000CFF6F6601840086043F21000C2F20040EB
:100200004860086820F480200860CA60019200926B
:10021000086840F480300860086800F400300090FE
:10022000019801300190009818B90198B0F5A04FDD
:10023000F2D10868800354BF00200120009000988C
:10024000012834D1086C40F08050086447F2000067
:10025000C4F20000026842F440420260886888608C
:10026000886840F400408860886840F4A050886046
:1002700045F20840C0F240704860086840F0807065
:10028000086000BF08688001FCD540F20570C1F825
:100290000004886820F003008860886840F002004D
:1002A000886000BF886800F00C000828FAD14FF081
:1002B00000604CF8800C02B0704700BF80B543F678
:1002C0000400C4F20200416801F00C0242F2004155
:1002D000082AC0F2F40106D0042A20D141F20021FC
:1002E000C0F27A011BE0D0F800C00368026803F096
:1002F0003F03C2F3881E5FEA4C2241F20022C0F2A3
:100300007A0258BF0A46B2FBF3F102680223C2F335
:1003100001420EFB01F103EB4202B1FBF2F140F2AC
:10032000C402C2F20002116040684BF65011C0F3E3
:100330000310C0F60001085C116821FA00F010609B
:1003400080BD000094B040F20044A820C4F2000434
:1003500002F06EFA4FF4165002F00EFB02F0B4FFFA
:1003600007F012FF04F57C491920009048465321FC
:10037000632201234FF0010802F0E6FB1D25204611
:10038000532163220023009502F0DEFB4FF08040F2
:1003900000214FF6FF720023009502F0D5FB04F513
:1003A0008066304600214FF6FF720023009502F070
:1003B000CBFB04F5FE3A03254027204603213222D9
:1003C0005346CDE9007502F0E3FC40F21411C2F28D
:1003D0000001086080272046042132225346CDE9DF
:1003E000007502F0D5FC40F21811C2F2000108605D
:1003F000FF2500274FF0804051460C220123CDF805
:1004000000800197029502F01DFD40F20C11C2F22E
:100410000001086004F5023130464FF4C042022367
:10042000CDE90087029502F00DFD40F21011C2F2F5
:10043000000108604846012101F0ECFB4FF08040CC
:10044000012101F0E7FB2046012101F0E3FB3046EA
:10045000012101F0DFFB48F2B82740F2600BC4F243
:100460004027C2F2000BA7F1800502200121CBE951
:10047000037501F07DF90DAE304600F05DFF4FF4DD
:10048000804040F2013804F500340D90C0F20018AD
:1004900020463146CDF8388000F008FF082009F0EA
:1004A00017FECBF8080040F2740B4FF00009C2F2BF
:1004B000000B02200121C7F80090CBE9037501F081
:1004C00057F90DAE304600F037FF4FF40040CDE94C
:1004D0000D082046314600F0E9FE082009F0F8FD3D
:1004E00040F2902640F28805C4F24026CBF808007E
:1004F000C2F20005A6F18000C7F80490C5E90360C8
:1005000001200121002701F033F90DAC204600F055
:1005100013FF1020CDE90D085046214600F0C6FE1D
:10052000082009F0D5FDA860304640F29C0540F84F
:100530007C79311DC2F20005C5E9031001200121BB
:1005400001F016F90DAC204600F0F6FE2020CDE9B2
:100550000D085046214600F0A9FE082009F0B8FD1C
:100560000023A8607360BDF83600BDF83410BDF8F4
:100570001820401ABDF81A10ADF83800881AADF8E6
:100580001C000020C4F2DC100F904CF28F20CBF640
:100590007550CDE9100340F29850C2F2000004609B
:1005A00043F23330CBF6337008904DF20A70CBF63D
:1005B000A340099044F6DF70CBF68D5040F29C5179
:1005C00040F2A05540F2925940F2C80A40F2181683
:1005D0000A90C2F2000106A8C2F20005C2F20009A8
:1005E000C2F2000A0FF2101B45A7C2F20006086013
:1005F00040F2A85140F2AC522846C2F20001C2F2C9
:10060000000207F03DFE95ED000A40F29850BDEE65
:10061000C00A40F29C5110EE102AB9F800309AED51
:10062000000AC2F20000C2F20001006809680A3341
:10063000BDEEC00A10EE104A1BB2009408F072FD25
:1006400040F2A451C2F20001088040F21411C2F23B
:1006500000010968326840F2004400B2C4F20004AC
:1006600088609060204601F04BFB3168204601F025
:100670007FFB95ED000A9AED001A002030EE410A4A
:10068000BDEEC00A10EE104A0021062217A3009406
:1006900003F0AEFCB9F90000082100F10A040020C3
:1006A00006225B46009403F0A3FC0DF1200898E8B5
:1006B000110109F0E2F941EC180B204609F0DDF9CF
:1006C00041EC190B404609F0D8F941EC100B002021
:1006D000102106223B468DEC048B8DED040B03F0BC
:1006E00087FC02F089FE08F0CDFD81E77069746334
:1006F000683A25346400000067793A2536640000C2
:10070000703A252E3166643A252E3266693A252ED6
:1007100032660000B0B50024C4F201042046012175
:1007200001F0C0FD01282CD140F2925540F29050CA
:10073000C2F2000540F29452C2F20000C2F200027E
:10074000294605F001FB288841F28931401A4DF60F
:10075000EE0188429CBF002028802420C4F20000C3
:10076000016840F29652C2F200021180D0F80018DF
:1007700040F2A652C2F20002118000210160C0F8CE
:10078000001820460121BDE8B04001F097BD0000EF
:100790000648804706480047FEE7FEE7FEE7FEE71B
:1007A000FEE7FEE7FEE7FEE7FEE7FEE7C101000821
:1007B0008901000840F080604EF60C5140F0FD7059
:1007C000CEF200010860704710B5C17800294EF2E2
:1007D0000011CEF200011CD04EF60C52CEF20002F7
:1007E0001268072323EA12220F23C2F1040C23FA12
:1007F00002FE427884785FFA8CF390F800C09A4049
:1008000004EA0E031A43120101EB0C0383F80023E0
:1008100000E080310078012300F01F0203FA02F2A9
:10082000C0F3421041F8202010BD00BF4FF6807287
:10083000C1F6FF72114008434EF60851CEF2000196
:100840000860704700294EF61051CEF200010A6888
:100850000CBF22EA00001043086070474EF21001FE
:10086000CEF200010A68042822F0040208BF043214
:100870000A60704780B54FF48070012100F0E4FFFA
:100880004FF480700021BDE8804000F0DDBF00BF64
:1008900010B542684FF6FF63CFF6FF4302EA030C40
:1008A0000B680A7943EA0C0343EA02224260826839
:1008B0004FF2FD73CCF2FF0302EA030E0A69D1E99D
:1008C00002C342EA0E024C791A4342EA0C0242EA9F
:1008D00044028260C26A097D22F470020139C9B201
:1008E00042EA0151C16210BD002101608180C0E96E
:1008F0000211016101210175704700BF80B542F20C
:10090000043CC4F2010CDCF8002043F2E003CFF613
:10091000FC7302EA030ED0E90031D0E9022043EA79
:100920000E03194311430843CCF8000080BD00BFFB
:100930000021C0E90011C0E9021170478268002956
:1009400022F0010218BF01328260704742684FF600
:10095000FF53CFF63F731A4011434160704700BF09
:1009600041628262704700BF426822F01F02114359
:100970004160704742F20431C4F201010A68002864
:1009800022F4000218BF02F500020A60704700BF9F
:1009900042F20431C4F201010A68002822F4800204
:1009A00018BF02F580020A60704700BFB0B501EBC6
:1009B000410C4FF0100E092988BFACF11E0C88BF06
:1009C0004FF00C0E50F80E40072505FA0CF5AC431D
:1009D00003FA0CF323432C256FF0400440F80E304B
:1009E0000D2A38BF302538BF6FF0220402EB820396
:1009F000072A3CBF34256FF004041A1943591F24F9
:100A00009440A343914019434151B0BD816841F0E6
:100A100080418160704700BF8068C0F3807070477C
:100A20008268002922F4806218BF02F58062826029
:100A3000704700BF8268002922F0020218BF02320C
:100A40008260704742684EF20003CFF6FF7322F4D3
:100A5000604203EB41311143416070474268002915
:100A600022F4006218BF02F500624260704700BFC6
:100A7000C06C80B2704700BF42F20830C4F201007F
:100A8000006870478268002922F4807218BF02F55E
:100A900080728260704700BF8268002922F4007271
:100AA00018BF02F500728260704700BF42F2043145
:100AB000C4F201010A68002822F4005218BF02F5AE
:100AC00000520A60704700BFB0B501EB410C4FF017
:100AD000100E092988BFACF11E0C88BF4FF00C0E18
:100AE00050F80E40072505FA0CF5AC4303FA0CF359
:100AF000234340F80E30836BFC2565EA13552A44E6
:100B00000332D5B2AD0055FA82F21F259540AB43B2
:100B1000914019438163B0BD826B0023CFF6F0731F
:100B200022F4401203EB015111438163704700BF6F
:100B300081B0002300930090009808440090009832
:100B4000026001B0704700BF826822F47022114336
:100B500081607047826822F44012114381607047BF
:100B6000816841F480018160704700BF8068C0F3F4
:100B7000805070474268002922F4806218BF02F555
:100B800080624260704700BF4268002922F48052B0
:100B900018BF02F580524260704700BF81B000224A
:100BA0000092009000980844283000900098006857
:100BB00080B201B0704700BFC9B2012303FA01F14E
:100BC000002A42680CBF22EA0101114341607047CC
:100BD0000068084018BF0120704700BFC94301608A
:100BE000704700BF42680068CBB210EA112018BFFE
:100BF000012022FA03F10840704700BF6FEA11217B
:100C00000160704780B54FF00050012100F010FEE8
:100C10004FF000500021BDE8804000F009BE00BF49
:100C200010B547F2004CC4F2000CDCF8003040F67E
:100C3000FE72824023EA020ED1E90032D1E902417C
:100C40001A432243114301FA00F040EA0E00CCF8A7
:100C5000000010BD0021C0E90011C0E90211704779
:100C600047F200420123C4F2000203FA00F0002917
:100C700011680CBF21EA000008431060704700BFF4
:100C800047F2044200090123C4F2000203FA00F013
:100C9000002911680CBF21EA00000843106070476A
:100CA00047F20441C4F200010A68002822F003025E
:100CB00018BF03320A60704747F20043C4F20003D2
:100CC00001FA00F0002A19680CBF21EA000008436D
:100CD0001860704781B00022009247F20042C4F2CF
:100CE00000020092009A10440830009000980160C1
:100CF00001B0704781B00022009247F20042C4F276
:100D000000020092009A1044143000900098016094
:100D100001B070470346082818BF102399401143BB
:100D200047F22042C4F200028150704781B0002196
:100D3000009147F20041C4F200010091009901EBDB
:100D400090002C3000900098006880B201B070478D
:100D500047F200424FF48053C4F2000203FA00F05D
:100D6000002911680CBF21EA000008431060704799
:100D700047F20043C4F2000301FA00F0002A1968A8
:100D80000CBF21EA000008431860704747F2344264
:100D9000C4F20002126801FA00F0104018BF0120EE
:100DA000704700BF01FA00F047F23441C4F200017D
:100DB0000860704747F20042C4F20002136801FA6B
:100DC00000F0516B03EA0002084018BF0120002A1E
:100DD00018BF01221040704701FA00F047F2344179
:100DE000C4F2000108607047016821F00101016050
:100DF0000021016041608160C160016146F20F41E4
:100E0000C4F2020188424FF02101416120DC46F228
:100E10006F01C4F2020188423EDC46F23F01C4F297
:100E2000020188426BDC46F21001C4F202018842E2
:100E300000F0BA8046F22801C4F20201884240F074
:100E4000F38046F20800C4F202004FF47461EAE055
:100E500046F26F41C4F20201884238DC46F23F415B
:100E6000C4F2020188425EDC46F21041C4F2020183
:100E7000884200F09F8046F22841C4F20201884275
:100E800001BF46F20800C4F202004FF47461C0F8DA
:100E9000001408BF7047C7E046F29F01C4F2020188
:100EA000884257DC46F27001C4F20201884200F029
:100EB000898046F28801C4F20201884240F0B48081
:100EC00046F20800C4F2020040F640717FE046F2AC
:100ED0009F41C4F20201884252DC46F27041C4F2E2
:100EE0000201884277D046F28841C4F2020188426A
:100EF00040F09A8046F20C4040F640716EE046F2B7
:100F00004001C4F2020188426DD046F25801C4F299
:100F10000201884240F0888046F20800C4F20200D4
:100F20004FF074617FE046F24041C4F20201884212
:100F300060D046F25841C4F20201884201BF46F235
:100F40000800C4F202004FF07461C0F8001408BF3A
:100F5000704769E046F2A001C4F20201884252D013
:100F600046F2B801C4F20201884201BF46F208000D
:100F7000C4F202004FF03D51416008BF704753E09A
:100F800046F2A041C4F20201884245D046F2B8417F
:100F9000C4F20201884218BF704746F20C40C4F206
:100FA00002004FF03D513EE046F20800C4F202005C
:100FB0003D2138E046F20800C4F202003D21C0F8AD
:100FC0000014704746F20800C4F202003D21C2F24C
:100FD00000014160704746F20C403D21C4F202001E
:100FE000C2F200011FE046F20800C4F202004FF412
:100FF000741118E046F20800C4F202004FF47411B4
:10100000C0F80014704746F208000021C4F2020044
:10101000C2F23D014160704746F20C400021C4F22B
:101020000200C2F23D010160704700BF2DE9F04FA0
:10103000026848F23F03CFF21C03D1F800901A4037
:10104000D1E9038E01F1140C9CE8F01042EA090288
:1010500042EA080222432A4332438B6A3A43D1E9E7
:101060000DAB42EA0C021A4342EA0A0242EA0B02C0
:1010700002604269D1E90B3722F007021A433A4372
:101080004261C0F804E04A6882608968C160BDE8D6
:10109000F08F00BF80B53C2108F09AFA80BD00BFF8
:1010A0000268002922F0010218BF01320260704775
:1010B0000268002922F4004218BF02F500420260D3
:1010C000704700BF0268002922F0200218BF2032BA
:1010D0000260704741607047406880B2704700BF4F
:1010E0000368002A23F4002318BF03F500230360DC
:1010F000016170470268002922F4802218BF02F5BE
:1011000080220260704700BF1023002A08BF0C2312
:10111000C15070470068C0F3C0407047006800F0DD
:1011200001007047406900F03800704780B546F212
:101130000442C4F2020246F2000C02F10C0EC4F2A8
:10114000020C0CF5806370453EBF46F20003C4F20A
:1011500002030CF10402880058BF1A4610680840C8
:1011600040F67D71C0F67D71084018BF012080BD3A
:1011700010B546F20C4340F67D7EC4F2020346F2FF
:101180000802C0F67D7EC4F2020203F1040C8C005A
:1011900001EA0E0105D4604528BF02F580621160A6
:1011A00010BD604538BF131D196010BD0B0606D574
:1011B0004369002A23F0800318BF803343618029EC
:1011C00008BF704701F01E01002A02680CBF22EA26
:1011D000010111430160704740F63C7CC0F63C7C45
:1011E00011EA0C0F04D01E22036802EAD12201E0AA
:1011F00042698023B0B51A4046F2044346F2000427
:10120000C4F20203C4F2020403F10C0E04F580657B
:1012100070453EBF46F20005C4F20205231D88005A
:1012200058BF2B4618680CF141131940084018BFED
:101230000120002A18BF01221040B0BD10B546F2AF
:101240000C4340F67D7EC4F2020346F20802C0F66B
:101250007D7EC4F2020203F1040C8C0001EA0E014F
:1012600005D4604528BF02F58062116010BD60455D
:1012700038BF131D196010BD00F13E4000F1FF7032
:101280004FEAB0200A2888BF704710B54BF61811F6
:10129000C0F6000151F820400121204600F0A4FAD8
:1012A00020460021BDE8104000F09EBA2DE9F04331
:1012B000D1F8008000234FF0010C4FF0030E002402
:1012C00010E000BFC26802EA0902C260CA79C568BC
:1012D0009A402A43C2600134102C03F1020308BF74
:1012E000BDE8F0830CFA04F618EA060FF3D00268A2
:1012F0000EFA03F7BA4302600A796FEA0709076832
:1013000002FA03F5013A3D43012A0560DAD8826802
:1013100002EA090282604A798D7987689A403A43E5
:1013200082604268B243426005FA04F2456892B2B4
:101330002A434260C6E700BF4FF6FF710022C0E9B2
:101340000012704781B04FF480320092009A0A4335
:101350000092009AC261C1610099C161C1690091A6
:10136000C069009001B070470069084018BF0120B3
:10137000704700BF006980B2704700BF40690840F5
:1013800018BF0120704700BF406980B2704700BF9E
:101390000183704741837047002A0CBF418301835A
:1013A000704700BF416170474269514041617047D9
:1013B0001C2303EA810C6FF0030303EA5101084484
:1013C0000F23016A03FA0CF399430162016A02FADE
:1013D0000CF211430162704743F60000C4F20200B0
:1013E00001684FF6FF7341F0010101600021816047
:1013F0000268CEF6F6231A40026043F21002C2F2EF
:101400000042426043F20002C2F20002C0F88420AF
:1014100002F18062C0F88820026822F48022026013
:10142000C160C0F88C10704743F60201C4F202019B
:1014300000220A700870704781B043F60000C4F2C1
:1014400002000021009100BF0168009A0132009261
:10145000009AB2F5A04F02D011F40031F4D0006828
:10146000C0F3404001B07047420943F60001012A31
:10147000C4F2020103D0022A14BF7431703109682A
:1014800000F01F0021FA00F000F00100704700BFDB
:1014900043F60001C4F202010A6822F0F80242EAAF
:1014A000C0000860704700BF0021C4F247210860F7
:1014B000704700BF43F67001C4F202010022012808
:1014C0000A700A7003D0042818BF704705200870FE
:1014D000704700BF40F68061C4F247210860704742
:1014E00080B5DDF808C04FEAC33E4FF6FF730843EE
:1014F0002EEA030340EA8210A3F5803340EA0C6031
:1015000043F604011843C4F20201086080BD00BF25
:101510006021C4F247210860704700BF090741EA13
:10152000801043F68401C4F202010860704700BFD6
:101530006821C4F247210860704700BF090641EAEC
:10154000801043F6880140EA0270C4F2020108608C
:10155000704700BF7021C4F247210860704700BF88
:101560004C21C4F247210860704700BF43F60802CF
:10157000C4F202021368084323F0EC6318431060BE
:10158000704700BF43F60802C4F202021368084322
:1015900023F0784318431060704700BF43F60801FA
:1015A000C4F202010A6822F0030210430860704787
:1015B00043F60800C4F20200006800F00C00704717
:1015C00043F60801C4F202010A6822F0F002104357
:1015D0000860704743F60801C4F202010A6822F469
:1015E000E05210430860704743F60801C4F202015C
:1015F0000A6822F4604242EAC0000860704700BFF7
:1016000010B543F60401C4F202014A6802F00C036B
:1016100042F20042082BC0F2F40206D0042B20D183
:1016200041F20022C0F27A021BE0D1F800C0D1F8EA
:1016300000E00B680EF03F0EC3F388145FEA4C2302
:1016400041F20023C0F27A0358BF1346B3FBFEF207
:101650000B686243C3F30143022404EB4303B2FB70
:10166000F3F202604A684BF66013C2F30312C0F64D
:1016700000039A5C046824FA02F242604C68C4F3E6
:1016800082241C5D22FA04F484604968C1F342316B
:10169000595C22FA01F1C16010BD00BF00F4407135
:1016A000B1F5407F43F60801C4F2020109D10A688E
:1016B0004FF6FF43C0F6FF7322F4F81203401A43BB
:1016C0000A608A6E6FF31F3010438866704700BF50
:1016D00040F63C61C4F247210860704740F6406123
:1016E000C4F247210860704740F25C11C4F2472100
:1016F0000860704743F68C01C4F202010A680138A1
:1017000022F01F0210430860704700BF43F68C01AF
:10171000C4F202010A686FF0FF0322F4F85203EBEF
:10172000002010430860704743F68C01C4F20201A8
:101730000A6822F4401210430860704743F68C0197
:10174000C4F202010A6822F44002104308607047A4
:1017500043F68C01C4F202010A6822F440321043BD
:101760000860704741F2E011C4F2472108607047F9
:10177000002943F63001C4F202010A680CBF22EAD4
:101780000000104308607047002943F63401C4F29A
:1017900002010A680CBF22EA00001043086070478B
:1017A000002943F63801C4F202010A680CBF22EA9C
:1017B0000000104308607047002943F64001C4F25E
:1017C00002010A680CBF22EA00001043086070475B
:1017D000002943F64401C4F202010A680CBF22EA60
:1017E0000000104308607047002943F61001C4F25E
:1017F00002010A680CBF22EA00001043086070472B
:10180000002943F61401C4F202010A680CBF22EA5F
:101810000000104308607047002943F61801C4F225
:1018200002010A680CBF22EA0000104308607047FA
:10183000002943F62001C4F202010A680CBF22EA23
:101840000000104308607047002943F62401C4F2E9
:1018500002010A680CBF22EA0000104308607047CA
:10186000002943F65001C4F202010A680CBF22EAC3
:101870000000104308607047002943F65401C4F289
:1018800002010A680CBF22EA00001043086070479A
:10189000002943F65801C4F202010A680CBF22EA8B
:1018A0000000104308607047002943F66001C4F24D
:1018B00002010A680CBF22EA00001043086070476A
:1018C000002943F66401C4F202010A680CBF22EA4F
:1018D000000010430860704743F67001C4F2020133
:1018E0000A68012822F0080208BF08320A6070471F
:1018F000002943F60D01C4F202010A780CBF22EA66
:10190000000010430870704743F67400C4F20200F0
:10191000016841F080710160704700BF43F60C011F
:10192000C4F202010968084018BF0120704700BFD7
:1019300043F60E01C4F202010870704780B541F60B
:10194000FF31C4F2000188421FDC40F6FF31C4F2CF
:10195000000188423ADD41F2FF31C4F200018842C1
:1019600061DC40F60041C4F20001884200F0828050
:1019700041F20001C4F20001884240F0B78010201B
:101980000121FFF755FF1020ABE040F2FF31C4F218
:101990000101884230DD44F2FF31C4F20101884286
:1019A00053DC40F20041C4F20101884268D044F2A5
:1019B0000001C4F20101884240F098804FF4803069
:1019C0000121FFF741FF4FF480306CE0B0F1804F10
:1019D0006ED040F20041C4F20001884274D040F65B
:1019E0000001C4F20001884240F0808004200121FF
:1019F000FFF71EFF042074E041F60041C4F200012D
:101A000088425BD042F20001C4F20001884261D0FA
:101A10000021C4F20101884268D101200121FFF7B1
:101A200013FF01203FE041F20041C4F2000188426F
:101A30002CD041F60001C4F20001884256D140206A
:101A40000121FFF7F5FE40204BE044F20041C4F2D3
:101A50000101884220D044F60001C4F2010188420D
:101A600018BF80BD4FF480200121FFF7EDFE4FF439
:101A7000802018E008200121FFF7DAFE082030E07E
:101A800002200121FFF7E0FE02200CE020200121CE
:101A9000FFF7CEFE202024E04FF400300121FFF7B5
:101AA000D3FE4FF400300021BDE88040FFF7CCBEEC
:101AB00001200121FFF7BCFE012012E0802001215E
:101AC000FFF7B6FE80200CE002200121FFF7B0FEF8
:101AD000022006E04FF480700121FFF7A9FE4FF4C9
:101AE00080700021BDE88040FFF7A2BE80BD00BF2E
:101AF00010B540F6FF32B0F800E0C4F2000240F248
:101B0000004C9042C4F2010C0FDCB0F1804F19D0B0
:101B100040F20042C4F20002904213D040F60002AC
:101B2000C4F2000290420DD011E040F60042C4F22F
:101B30000002904206D0604504D00022C4F20102A7
:101B4000904204D14A882EF0700342EA030E41F21B
:101B5000004340F48062C4F200039A4204D00C892E
:101B60002EF4407344EA030EA0F800E04B6862458F
:101B7000C3620B88038504BF897A018601218182B3
:101B800010BD00BF4FF0FF310022C0E900210281EB
:101B90008272704701858282704700BF028822F0FE
:101BA000700211430180704741627047C162704703
:101BB000406A7047008D70470288002918BF0121D4
:101BC00022F0020242EA41010180704702880029A6
:101BD00018BF012122F0040242EA8101018070470E
:101BE0000288002918BF012122F0800242EAC111B7
:101BF00001807047028822F00802028002881143A7
:101C000001807047028822F44072028002881143EA
:101C1000018070470288002918BF012122F00102CB
:101C200011440180704700BFB0B5028C40F20045FE
:101C300022F001020284038C40F48064C4F20105A6
:101C40008288B0F818C0AC428C8923F002034D881A
:101C5000B1F800E043EA040343EA05030DD1CC895F
:101C600023F00C0324F004048D8823430C8A2B43B7
:101C700022F440724D8A22432A432CF0730545EA30
:101C80000E0582800583896841630384B0BD00BF6F
:101C9000B0B5028C40F2004522F01002028440F4FC
:101CA0008064C4F20105038C8288B0F818E0AC426D
:101CB0008C894D88B1F800C023F0200344EA050464
:101CC00043EA041311D1CC896FF0400523F0C0031F
:101CD00005EA04148D88234343EA05130C8A4D8AD0
:101CE00022F440622C4342EA84022EF4E64545EA9F
:101CF0000C2582800583896881630384B0BD00BFA1
:101D0000B0B5028C40F2004522F48072028440F4A7
:101D10008064C4F20105038C8288B0F81CE0AC42F8
:101D20008C894D88B1F800C023F4007344EA05049F
:101D300043EA042311D1CC8940F2FF45240223F465
:101D40004063AC438D88234343EA05230C8A4D8AC4
:101D500022F440522C4342EA04122EF0730545EA65
:101D60000C05828085838968C1630384B0BD00BF90
:101D7000F0B5028C40F2004722F480520284038CBA
:101D80008288B0F81CE0B1F800C08C894D8840F41E
:101D90008066C4F20107BE4204D10E8A22F480425A
:101DA00042EA86122EF4E64747EA0C2782808783B0
:101DB00023F400532C43896843EA0432016402840B
:101DC000F0BD00BF002101608180C0E90211016106
:101DD000704700BF10B54FF0010C048C0CFA01F3F2
:101DE00024EA03036FF0080400F1180E2142038473
:101DF0000DD0081F80B241085EF8013048F6FF742C
:101E00000EEB5000234012024EF8013009E04B085F
:101E10000EEB510053F80E104FF68F74214043F82B
:101E20000E10016892B21143016010BD416370470A
:101E300081637047C163704701647047028B22F071
:101E40007002114301837047028B22F4E04242EAA0
:101E500001210183704700BF828B22F07002114381
:101E600081837047828B22F4E04242EA0121818320
:101E7000704700BF028B22F00802114301837047B4
:101E8000028B22F4006242EA01210183704700BF05
:101E9000828B22F00802114381837047828B22F4E7
:101EA000006242EA01218183704700BF028B22F069
:101EB0000402114301837047028B22F4806242EADC
:101EC00001210183704700BF828B22F0040211437D
:101ED00081837047828B22F4806242EA01218183F0
:101EE000704700BF028B22F08002114301837047CC
:101EF000028B6FF3DF3242EA01210183704700BF9A
:101F0000828B22F08002114381837047828B6FF3B2
:101F1000DF3242EA01218183704700BF028C22F048
:101F20000202114301847047028C22F0080211431F
:101F300001847047028C22F0200242EA01110184E0
:101F4000704700BF028C22F0800242EA0111018436
:101F5000704700BF028C22F4007242EA0121018422
:101F6000704700BF028C22F4006242EA0121018422
:101F7000704700BF028C22F4005242EA0131018412
:101F8000704700BF80B54FF0010CB0F820E00CFAAC
:101F900001F32EEA03030384038C02FA01F11943CF
:101FA000018480BD80B54FF0040CB0F820E00CFA3D
:101FB00001F32EEA03030384038C02FA01F11943AF
:101FC000018480BD70B50C88B1F802C0B1F804E09E
:101FD0000B89028C082C2ED0042C17D0002C44D155
:101FE00022F001020284024632F8184F058C24F0D8
:101FF000F30425F00A0544EA031345EA0C0543EA15
:102000000E0345F001051380058429E022F010023B
:102010000284024632F8184F058C40F6FF463440E1
:1020200025F0A00644EA033346EA0C1643EA0E23E1
:1020300046F010062EE022F480720284024632F846
:102040001C4F058C24F0F30425F4306644EA031396
:1020500046EA0C2643EA0E0346F480761380068493
:10206000C888118821F00C011BE022F48052028400
:10207000024632F81C4F058C40F6FF46344044F6C9
:10208000FF761B032E4043EA0E2346EA0C36234319
:1020900046F4805613800684C8881188000221F413
:1020A0004061118011880843108070BD028B22F0BE
:1020B0000C020283028B114301837047028B22F4CE
:1020C00040620283028B42EA01210183704700BF14
:1020D000828B22F00C028283828B114381837047B2
:1020E000828B22F440628283828B42EA01218183C7
:1020F000704700BF002101220160426001817047EA
:10210000F0B54B888C880127B3FA83F2012C08BF05
:1021100002270E885209B1F808E0058C4FEA420CFC
:102120009EB325F010020284028B40F6FF46058C18
:10213000324042EA0E3242EA042225F0A00444EA88
:10214000031343F0100302830384C988028B22F433
:1021500040620283028B42EA01220283028C22F057
:1021600001020284028B038C22F0F30223F00A03A3
:1021700042EA0E1243EA0C033A4443F0010302839D
:102180000384028B22F00C0231E025F0010202846C
:10219000028B058C22F0F30242EA0E12224325F054
:1021A0000A04234343F0010302830384C988028B9A
:1021B00040F6FF4422F00C020283028B0A430283A2
:1021C000028C090222F010020284028B038C22404E
:1021D00023F0A00342EA0E3243EA0C1342EA07223C
:1021E00043F0100302830384028B22F440620283D3
:1021F000028B11430183F0BD406B7047806B7047C9
:10220000C06B7047006C7047B1F800C04B888A887B
:1022100043EA0C0343EA020CCB880A8943EA0C0325
:102220001A434B8989891A431143A0F84410704717
:10223000002181818160416001607047B0F84420D5
:10224000002918BF01216FF3DF3242EAC131A0F843
:10225000441070478288002918BF012122F004022F
:1022600042EA8101818070478288002918BF0121DC
:1022700022F0010211448180704700BF002A828948
:102280000CBF22EA010111438181704781827047AE
:10229000008A084018BF0120704700BFC94301826F
:1022A000704700BF028A80890A4000EA010018BF17
:1022B0000122002818BF012010407047C943018245
:1022C000704700BF1143A0F848107047002A828968
:1022D0000CBF22EA010111438181704782880029E5
:1022E00018BF012122F0080242EAC1018180704733
:1022F000018921F007010181704700BF028922F0A6
:10230000700211430181018941F007010181704789
:10231000028922F0700211430181704710B5B0F8B4
:1023200020C0602916D12CF0100CA0F820C0B0F805
:1023300018C0B0F820E040F6FF4404EA0C0444EA78
:1023400003332EF0A00444EA021203F5807342F036
:10235000100210E02CF001040484048BB0F820C0BB
:1023600024F0F20444EA03132CF00A04224343F05D
:10237000010342F0010203830284028922F0700209
:1023800011430181018941F00701018110BD00BFA6
:10239000B0F808C011435FFA8CFC41EA032141EA1E
:1023A0000C010181018941F077010181704700BF73
:1023B000B0F808C011435FFA8CFC41EA032141EAFE
:1023C0000C010181704700BFB0F808C011435FFAEB
:1023D0008CFC41EA032141EA0C010181018941F4AD
:1023E00080410181704700BF828822F070028280A4
:1023F0008288114381807047028922F0070202819E
:102400000289114301817047028922F08002028112
:102410000289114301817047B0B5B0F808C0B0F827
:1024200018E0058C2CF0070421434FF6FC4404EA25
:102430000E0425F0220542EA031204F201142A4395
:10244000018104830284B0BD8288002918BF012164
:1024500022F0800242EAC11181807047A0F850103A
:102460007047000080B547F2FF71C4F20001884256
:1024700019DC44F6FF31C4F2000188422DDC44F23D
:102480000041C4F2000188424ED044F60001C4F27B
:10249000000188426ED14FF480200121FFF7C8F976
:1024A0004FF4802057E040F6FF71C4F201018842EA
:1024B00027DC47F60001C4F2000188423CD047F611
:1024C0000041C4F20001884254D14FF00040012184
:1024D000FFF7AEF94FF000403DE044F60041C4F292
:1024E0000001884230D045F20001C4F20001884268
:1024F00040D14FF480100121FFF79AF94FF480107A
:1025000029E041F20041C4F20101884228D041F2A1
:102510000001C4F20101884218BF80BD10200121D2
:10252000FFF792F9102020E04FF400300121FFF76F
:102530007FF94FF400300EE04FF080400121FFF7AB
:1025400077F94FF0804006E04FF400200121FFF7BB
:102550006FF94FF400200021BDE88040FFF768B913
:1025600020200121FFF770F920200021BDE88040E4
:10257000FFF76AB980BD00BF70B584B00446008A19
:102580000D46C98820F4405008432082A0894EF6A9
:10259000F3110840A9882A896B890843104318431E
:1025A000A081A08AA98920F4407008436E46A082C9
:1025B0003046FFF725F841F2000124F48060C4F2B0
:1025C00001010822884208BF0C22B058B4F90C104F
:1025D0000122B1F1FF3FC8BF02222B6819214843F5
:1025E00003FA02F1B0FBF1F048F21F51C5F2EB1112
:1025F000A0FB01235A096FF0630302FB0300B4F947
:102600000C300326B3F1FF3FC8BF042600FA06F0E2
:1026100000F13200A0FB01014FF00700C8BF0F20FE
:1026200000EA511040EA0210208104B070BD00BFE2
:102630004FF4165100224FF4402380E80E008281AF
:10264000704700BF80B5028A0B8822F4706C4A88FC
:10265000B1F804E043EA0C03C9881A4342EA0E02C7
:102660001143018280BD00BF0021416001607047BD
:102670008289002918BF012122F4005242EA413127
:1026800081817047028B22F0FF020283028B11438B
:10269000018370478289002918BF01216FF3DF325F
:1026A00042EAC13181817047828A002918BF012125
:1026B00022F4006242EAC121818270476FF35F21F8
:1026C0008180704780886FF35F207047028A22F014
:1026D0000F020282028A1143018270478289002917
:1026E00018BF012122F0020242EA410181817047B4
:1026F000828922F40062828182891143818170473C
:10270000028A22F020020282028A1143018270476B
:10271000028A002918BF012122F4804242EA813155
:1027200001827047818941F001018181704700BFBA
:10273000828A002918BF012122F0080242EAC10161
:1027400081827047028BD2B20283028B42EA01215E
:1027500001837047828A002918BF012122F02002DC
:1027600042EA411181827047828A002918BF012103
:1027700022F0100242EA011181827047828A22F01F
:1027800004028282828A114381827047828A0029F0
:1027900018BF012122F0020242EA41018182704702
:1027A000002A828A0CBF22EA01011143818270470C
:1027B000C1F3421301F01F0C1421022B08BF10219A
:1027C000012B4FF0010308BF0C21002A03FA0CF281
:1027D00043580CBF23EA02021A434250704700BF1D
:1027E0000088084018BF0120704700BFC94301801E
:1027F000704700BFC1F342121423022A08BF1023FE
:10280000012A08BF0C23C35A008801F01F02090ADD
:1028100023FA02F2C840104000F00100704700BFE8
:10282000090A012202FA01F1C94301807047000040
:1028300010B504466FF00400FEF710F840F28E5118
:10284000E008C2F2000108704FF47A71484340F288
:102850008C51C2F20001088010BD00BF40F28E51C1
:10286000C2F200010A784EF21001CEF2000150438C
:10287000486000208860086840F00100086000BFE0
:10288000086800F001100128FAD0086820F0010063
:10289000086000208860704740F28C51C2F200014D
:1028A0000A884EF21001CEF2000150434860002029
:1028B0008860086840F00100086000BF086800F008
:1028C00001100128FAD0086820F0010008600020FB
:1028D0008860704710B547F65D124243130E4FF4FF
:1028E00007724EF2100103FB120E40F28C5CCEF226
:1028F0000001C2F2000C16D0BCF8000042430020D8
:102900004A6088600C6844F001040C600C6804F0B4
:102910000114012CFAD00C68013B24F001040C6076
:102920001C068860ECD15FEA0E4008BF10BDBCF801
:1029300000001FFA8EF2504348600020886008684B
:1029400040F00100086000BF086800F00110012895
:10295000FAD0086820F0010008600020886010BDEF
:10296000704700BF41F20001C4F201010A8852061B
:10297000FCD5C2B28A8070472DE9F04188B080460C
:1029800001200121FEF7F4FE10200121FEF720FFB7
:1029900041F200054FF40070C4F20105069040F2C8
:1029A000022005F5704606AFADF81C000024304645
:1029B00039468DF81E40FEF779FC4FF48060069092
:1029C000304639468DF81C40FEF770FC40F2253049
:1029D000C0F20310019001A8FDF7F6FE4FF440206D
:1029E000049002A92846CDE90284ADF81440FFF70F
:1029F000C3FD284640F225510122FFF7D9FE2846A3
:102A00000121FFF735FE08B0BDE8F08110B541F2B5
:102A10000004C4F20104204640F22551FFF7EAFE0B
:102A2000002800F04380A1886FF35F21A1F13102FB
:102A3000462A88BF10BD0120DFE802F0332A263085
:102A400032282C2E38383838383838383838383832
:102A500038383838383838383838383838383838F6
:102A600038383838383838383838383824383838FA
:102A700038383838383838383838383824382438FE
:102A80003838240008460CE003200AE0062008E05D
:102A9000022006E0072004E0082002E0042000E015
:102AA000052040F21C51C2F20001088010BD00BF99
:102AB00010B541F20004C4F2010401462046FFF7BC
:102AC000FDFD00BF20464021FFF78AFE0028F9D017
:102AD00010BD00BF002908BF704770B541F2000665
:102AE0000C460546C4F2010629783046FFF7E6FD9C
:102AF00030464021FFF774FE0028F9D0013C200643
:102B000005F10105F0D1BDE870407047A0F18040AB
:102B1000A0F580604FEAB02007288FBF01204CF25B
:102B20009021C0F6000151F82000704742F20012D7
:102B3000C4F201024FF48071904208BF4FF400715B
:102B400008467047704700BF2DE9F04184B0044645
:102B5000A0F18040A0F58060DDF828804FEAB02029
:102B60001D46164607280F4606D84CF29021C0F69F
:102B7000000151F8200000E001200121FEF71CFEB9
:102B80000020ADF80600ADF80C0001A92046ADF814
:102B900004700296FEF7ACFF204601212A46FFF79B
:102BA0006DFB4FF48170ADF8010068468DF8008030
:102BB0008DF80350FDF708FE20460121FFF72AF8A3
:102BC00004B0BDE8F08100BF2DE9F0478EB00746A4
:102BD00042F20010C4F201000E4682424FF48070AF
:102BE0004FF00101994614464FF4807808BF4FF426
:102BF00000704FF0010AFEF7EBFD03200025CDE940
:102C0000005040F21000C2F2000039463246032361
:102C1000CDF808A007F0AEF94FF480300B900AA869
:102C20000A950C950D95FDF769FE04A920460495BB
:102C3000ADF81480069508958DF824A0FDF728FEC0
:102C40002046494601220123FDF7B0FE204601211E
:102C5000FDF774FE0EB0BDE8F08700BFF0B581B09F
:102C60002DED048B84B00D4604464FF00050012139
:102C7000FEF7A2FD00EE105AB8EE408AB0EE480A08
:102C800007F0EAFE9FED259A40F2002680EE090A41
:102C9000C4F2402640F23807C2F20007BDEEC00A77
:102CA00010EE100A06EB80008030B0EE480AF860A3
:102CB00007F0D2FE80EE090A0121BDEEC00A10EE37
:102CC000100A06EB800038610120FEF751FD6E46C8
:102CD0003046FEF731FB40F20330C0F200100190A5
:102CE0000020C4F2020031460095FEF7DFFA08200A
:102CF00007F0EEF9B8600020CDE900000290022054
:102D0000039069462046FDF78BFF20460121FDF721
:102D1000A7FF04B0BDEC048B01B0F0BD1872313FC9
:102D200070B590B00D4604464FF480000121012695
:102D3000FEF71EFD42F24C00C4F201004FF40061A8
:102D4000029040F2081008914FF40051C2F20000C6
:102D500009914FF48071039000200A914FF40031E3
:102D6000CDE90406CDE90600CDE90B10CDE90D60F3
:102D70000F9020460195FEF737F801A92046FEF78F
:102D800055F920460121FEF78BF910B070BD00BF48
:102D90002DE9F04784B00D46DDE90C48814601205D
:102DA0000321CDE9011040F2B0001F4616464FF056
:102DB000000AC2F20000194622460223CDF800A004
:102DC00007F0D8F800EE104AB8EE400A07F044FECB
:102DD0009FED1B1A384680EE010A4246BDEEC00A3E
:102DE00010EE101AFEF7E4FA142007F071F9074606
:102DF0006020C0F201003860681E4FF48071032823
:102E0000BE60A7F80CA0398216D8DFE800F00211E6
:102E1000070C48463946FEF707FF0DE0484639469D
:102E2000FEF76EFF08E048463946FEF7A1FF03E0D3
:102E300048463946FEF72CFF384604B0BDE8F08717
:102E40001872313F2DE9F04784B00E460446032046
:102E50000021CDE9001040F24C001D46DDF838900D
:102E6000DDE90C8A4FF0010CC2F20000314602236A
:102E70001746CDF808C007F07DF800EE107AB8EEDE
:102E8000400A07F0E9FD9FED1A1A304680EE010A6C
:102E90002A46BDEEC00A10EE101AFEF789FA0A2083
:102EA00007F016F90546BAFA8AF040098600284666
:102EB000FFF720F920462946A5F800A0A5F80890BC
:102EC000FFF780F8204629462E80A5F80890FFF7E6
:102ED00079F820460321B8F1010F19BF002202231F
:102EE00002220023FFF798FA284604B0BDE8F087D5
:102EF0001872313F014640880A88B1F916C0821A1B
:102F00000CFA82F091ED040A01EE100AB1F91A00F0
:102F1000B8EEC11A20EE012A01EE100AB8EEC11A6D
:102F2000B4EE412AF1EE10FA13B28A8009DC404275
:102F300003EE100AB8EEC33AB4EE432AF1EE10FAEB
:102F400016DAA3EB0C0000EE103A91ED022A91ED97
:102F5000033A04EE100AB8EEC00AB8EEC44A23EEF3
:102F6000043A22EE000A30EE030A30EE010A1DE0B8
:102F7000B1F9180001EE103A02EE100AB8EEC22ABA
:102F800020EE020A91ED022AB8EEC11A22EE011AD1
:102F9000A3EB0C0091ED033A31EE000A01EE100AAA
:102FA000B8EEC11A23EE011A31EE000ABDEEC00AD6
:102FB00010EE100A6528888224BF002088820B8BBF
:102FC000B1F91400CA821A440A8370472DE9F0410E
:102FD00082B0804640F20C20C4F2402040F224042B
:102FE00000F18001C2F20004C4E9031001200121B4
:102FF000FEF7BEFB6E463046FEF79EF90C2044F20B
:103000000045009040F20230C4F20005C0F200100A
:1030100005F5DE37019038463146FEF747F90820BE
:1030200007F056F8A060384603210722FEF7C0F9E2
:103030004FF400300121FEF7BFFB102007F048F8E5
:1030400006464FF4165000214FF4402286E8070050
:10305000B18128463146FFF78FFA284640F22551C4
:103060004246FFF7A5FB042007F032F840F2263174
:10307000C0F203110160FDF7A7FB304602B0BDE8C6
:10308000F081000000000000024640F20040C4F25F
:1030900002000221FEF780B9024640F20040C4F26D
:1030A00002000421FEF778B9B0B582B002200121F8
:1030B00002240125FEF75CFB009440F2004440F23C
:1030C00001308DF80650C4F202046D46ADF80400DC
:1030D00020462946FEF7EAF80420009020462946BB
:1030E000FEF7E4F8204602210122FEF755F92046BA
:1030F00004210122FEF750F902B0B0BD10B540F234
:103100000044C4F20204204604210122FEF744F9DF
:10311000204602210122FEF73FF920460421002229
:10312000FEF73AF9204602210022BDE81040FEF7E2
:1031300033B900BF10B540F20044C4F20204204687
:1031400004210022FEF728F9204602210122FEF781
:1031500023F9204604210122BDE81040FEF71CB9E6
:1031600070B540F200440546C4F20204002600BFD8
:1031700005FA06F0C0B2C20920460421FEF70CF998
:10318000204602210122FEF707F9204602210022F3
:10319000FEF702F90136082EEAD12046022101226B
:1031A000FEF7FAF8204602210022BDE87040FEF743
:1031B000F3B800BF70B540F20044C4F20204054603
:1031C000204604210122FEF7E7F8204602210122D1
:1031D000FEF7E2F8204604210022FEF7DDF8204643
:1031E00002210022FEF7D8F87820FFF7B9FF082661
:1031F000204604210022FEF7CFF8204602210122BA
:10320000FEF7CAF8204602210022FEF7C5F8013E6B
:10321000EED1204602210122FEF7BEF8204602210F
:103220000022FEF7B9F82846FFF79AFF204604214E
:103230000022FEF7B1F8204602210122FEF7ACF889
:10324000204604210122BDE87040FEF7A5B800BF6A
:1032500070B540F20044C4F202040D460646204612
:1032600004210122FEF798F8204602210122FEF7F0
:1032700093F8204604210022FEF78EF82046022112
:103280000022FEF789F87820FFF76AFF4020FFF759
:1032900067FF3DB1013E00BF16F8010FFFF760FF69
:1032A000013DF9D1204604210022FEF775F82046A1
:1032B00002210122FEF770F8204604210122BDE818
:1032C0007040FEF769B800BFB0B582B0022001219E
:1032D00002240125FEF74CFA009440F2004440F22B
:1032E00001308DF80650C4F202046D46ADF80400BA
:1032F00020462946FDF7DAFF0420009020462946A3
:10330000FDF7D4FF204602210122FEF745F82046B2
:1033100004210122FEF740F8AE20FFF74BFFD52035
:10332000FFF748FF8020FFF745FFA820FFF742FF87
:103330003F20FFF73FFFD320FFF73CFF0020002591
:10334000FFF738FF4020FFF735FFA120FFF732FFDE
:10335000C820FFF72FFFDA20FFF72CFF1220FFF71E
:1033600029FF8120FFF726FFCF20FFF723FFD92079
:10337000FFF720FFF120FFF71DFFDB20FFF71AFF0B
:103380003020FFF717FFA420FFF714FFA620FFF758
:1033900011FF8D20FFF70EFF1420FFF70BFFAF206A
:1033A000FFF708FF40F21C14C2F2000420464FF45D
:1033B000806106F00DF900BF45F0B000C0B2FFF724
:1033C000F9FE1020FFF7F6FE0220FFF7F3FE20467D
:1033D0008021FFF73DFF0135082D04F18004EBD17A
:1033E00002B0B0BD80B540F21C10C2F200004FF434
:1033F000806106F0EDF880BDB0B540F21C140025E8
:10340000C2F2000445F0B000C0B2FFF7D3FE1020B6
:10341000FFF7D0FE0220FFF7CDFE20468021FFF708
:1034200017FF0135082D04F18004EBD1B0BD00BFBA
:1034300010B540F0B0000C46FFF7BCFE200910307C
:10344000FFF7B8FEA01CC0B2BDE81040FFF7B2BE47
:10345000002904BF0120704702460120013902FB08
:1034600000F0FBD1704700BF2DE9F0474FF0000599
:10347000B8B3DDF820C0461E4FF0000E4FF0000834
:1034800007E000BF464608F101080FFA88F58542BB
:1034900026DA32F9159034B232F914A0E1454FF032
:1034A0000007C8BF0127E2454FF00006D8BF01263C
:1034B0007740E7D131F9144031F91550ACEB0906EA
:1034C000641B7443AAEB090694FBF6F42C449C425B
:1034D000C2BF1FFA8EF7B7FA87F74FEA571ED1E738
:1034E0007546E8B2BDE8F08770B52DED028B064653
:1034F00008461C46154606F06AFA41EC180B3046A1
:1035000006F065FA41EC110BB0EE480AF0EE680ADD
:1035100007F0A2F951EC100B9FED130B53EC102B9D
:1035200006F095F99FED120B53EC102B06F01DF9E8
:1035300006F06BFAA542014607DAA9420FDBA14269
:103540000DDC0120BDEC028B70BDA9424FF00100E3
:1035500002DAA142C8BF0020BDEC028B70BD002082
:10356000BDEC028B70BD00BF1F85EB51B81E09403A
:1035700000000000008066402DE9F04F81B00B4450
:10358000904601EB5172013BCF1303EB537307EBF2
:10359000D206DC10B1F1FF3F37B24FF00102C8BFD5
:1035A00002EBE304BC4228DD0546C0B2000900F18D
:1035B0001009A81C40F21C1B5FFA80FAC2F2000B33
:1035C00004E000BF013637B2BC4216DD7F2DF9D8CA
:1035D000B0B20728F6D846F0B000C0B2FFF7EAFD57
:1035E0004846FFF7E7FD5046FFF7E4FD0BEBC71039
:1035F00028444146FFF72CFEE4E701B0BDE8F08F18
:103600002DE9F04303EB01088845D8BFBDE8F083FE
:1036100040F21C1E02444FF0010CC2F2000E89461B
:1036200006E000BF09F101090FFA89F188451CDDA8
:103630008242F7DD09F007030CFA03F3CE08D94301
:103640001FFA89F50EEBC6160346074604E000BFD5
:1036500001373BB29A42E5DD3F2DF9D8BCB27F2C51
:10366000F6D8F45C0C40F454F2E7BDE8F08300BFF8
:1036700040F21C114FF0000CC2F200014FF0FF327B
:103680008B1858780132C0437F2A5870F8D10CF15A
:10369000010CBCF1080F01F1800108BF7047EDE794
:1036A0002DE9F04303EB01088845D8BFBDE8F0835E
:1036B00040F21C1E02444FF0010CC2F2000E89467B
:1036C00006E000BF09F101090FFA89F188451ADD0A
:1036D0008242F7DD09F007030CFA03F5CB081FFA65
:1036E00089F10EEBC3160346074603E001373BB2F0
:1036F0009A42E7DD3F29F9D8BCB27F2CF6D8F45CBA
:103700006C40F454F2E7BDE8F08300BF80B582B0AE
:10371000062B0CD0082B1AD14BF69F43C0F60003A2
:1037200003EB0212A2F5007C082210230BE04BF6FB
:10373000652302EB4202C0F6000303EB4202A2F152
:10374000C00C06220823CDF800C000F003F802B038
:1037500080BD00BF2DE9F04F84B0CDE9020293B3E4
:10376000DDE9022003EB010900EB020B4FF0010839
:1037700008460F4604E000BF013738B2814522DD1C
:10378000039A002AF8D007F0070440F21C12029EA8
:1037900008FA04F4C008C2F200026FEA040A02EB5D
:1037A000C014304604E000BF013630B28345E3DD8B
:1037B000BDB23F2DF8D8B5B27F2DF5D8255C05EA0E
:1037C0000A052554F0E7581E00EB5070C010019018
:1037D00001EB5170C31020F0070003EBE132082326
:1037E000081A03EA11310844009282B2C0F10800BD
:1037F0001FFA80FB00204FF0000806E008F10108E6
:1038000001995FFA88F0814238DB03990029F5D0ED
:10381000039D0D9B5FFA88F1009E15FB013740F276
:103820001C1356FA88F1C2F2000306EB000A029854
:1038300003EBC1130AF1010905E000BF0137013DA7
:1038400000F10100DAD07F28F8D8BAF1070F08D8C4
:1038500097F800C013F800E00CFA02F646EA0E06EC
:103860001E54B9F1070FE9D83E78191891F8804035
:1038700026FA0BF6264381F88060DFE704B0BDE846
:10388000F08F00BF2DE9F04F81B0934612786AB3F4
:103890004BF665284BF69F491C468A460746002092
:1038A000C0F60008C0F60009002610E002EB420155
:1038B00008EB4101A1F1C0055146062208230095FD
:1038C000FFF748FF0136F0B21BF8002072B100FB91
:1038D0000470062C00B2E9D0082CF3D109EB0211D8
:1038E000A1F50075514608221023E8E701B0BDE8B4
:1038F000F08F00BF002B08BF70472DE9F04F81B05B
:10390000DDF828B01C469146884682465D42002775
:1039100017E000BFCAB2520052FA81F14BF665229D
:10392000C0F6000202EB4101A1F1C00641460622A9
:1039300008230096FFF70EFF0137A74205F10105A6
:1039400032D0F843001909D00120294600EB80004D
:1039500001314A1C4FEA4000F8D100E00120B9FBD8
:10396000F0F24CF6CD4007FB0BA1CCF6CC40A2FB0D
:10397000000308B2D90801EB8101A2EB4101BBF1C0
:10398000060F41F03001C5D0BBF1080FD4D14BF682
:103990009F42C9B2C0F6000202EB0111A1F5007608
:1039A000414608221023C4E701B0BDE8F04F70473C
:1039B0002DE9F04F83B0DDF830801C469246002A96
:1039C0008146029110D4B8F1060F1ED0B8F1080F4D
:1039D00028D14BF69F40C0F60000029900F1B007D5
:1039E0004846082210231AE0B8F1060F1CD0B8F19F
:1039F000080F26D14BF69F40C0F60000029900F157
:103A0000D00748460822102318E04BF66520C0F680
:103A10000000029900F14207484606220823009759
:103A2000FFF798FE8CB95EE04BF66520C0F600000B
:103A3000029900F14E074846062208230097FFF737
:103A400089FECAF1000A002C4DD04CF6CD4B6742DE
:103A50000025CCF6CC4B15E0CAB2520052FA81F1E7
:103A60004BF66522C0F6000202EB4101A1F1C0064F
:103A70000299062208230096FFF76CFEA54207F183
:103A8000010730D0E84300190AD00120394600BFB1
:103A900000EB800001314A1C4FEA4000F8D100E001
:103AA00001200135BAFBF0F205FB0891A2FB0B03E4
:103AB00008B2D90801EB8101A2EB4101B8F1060F70
:103AC00041F03001C8D0B8F1080FD7D14BF69F4272
:103AD000C9B2C0F6000202EB0111A1F5007602990D
:103AE00008221023C7E703B0BDE8F08F002B08BF02
:103AF00070472DE9F04F81B0DDF828B01C469146A3
:103B0000884682465D4200270BE000BF41460822FE
:103B100010230096FFF71EFE0137A74205F10105AD
:103B20004FD0F843001907D00120294601314A1C23
:103B30004FEA0010FAD100E00120B9FBF0F000F0EC
:103B40000F0107FB0BA0092912D800B2BBF1060F29
:103B500001F130011CD0BBF1080FDDD14BF69F42C3
:103B6000C0F6000202EB0111A1F50076CEE700BF1E
:103B7000BBF1060F00B216D0BBF1080FCCD14BF64B
:103B80009F42C0F6000202EB011101F5B876BDE7D5
:103B90004BF6652201EB4101C0F6000202EB410148
:103BA000A1F1C00609E04BF6652201EB4101C0F628
:103BB000000202EB410101F18A0641460622082378
:103BC000A7E701B0BDE8F04F704700BF002B08BF6A
:103BD00070472DE9F04F81B0DDF828B01C469146C2
:103BE000884682465D42002717E000BFCAB25200F5
:103BF00052FA81F14BF66522C0F6000202EB410158
:103C0000A1F1C0064146062208230096FFF7A2FD57
:103C10000137A74205F1010524D0F843012100191D
:103C200005D028460130421C4FEA4101FAD107FB7A
:103C30000BA0B9FBF1F1182200B2BBF1060F62F341
:103C40005F01D3D0BBF1080FE2D14BF69F42C9B25E
:103C5000C0F6000202EB0111A1F5007641460822F0
:103C60001023D2E701B0BDE8F04F704700BF00BF9E
:103C70002DE9F04F81B02DED028B86B0B0EE408A79
:103C8000F0EE608A9FEDB00B994616460391DDF881
:103C90004880044651EC180B53EC102B05F061FEE4
:103CA000019480B1B8F1060F1ED0B8F1080F28D1E9
:103CB0004BF69F40C0F60000039900F1D007204664
:103CC000082210231AE0B8F1060F25D0B8F1080F2A
:103CD0002FD14BF69F40C0F60000039900F1B007CA
:103CE00020460822102321E04BF66520C0F6000094
:103CF000039900F14E072046062208230097FFF79C
:103D000029FD8DED048B9DF8170080F080008DF863
:103D100017009DED048B0CE04BF66520C0F600000B
:103D2000039900F142072046062208230097FFF777
:103D300011FD57EC185B2846394605F085FE044610
:103D400005F056FE02460B462846394605F007FDAB
:103D50008346B9F1000F0F464FF0010506D04846E3
:103D600005EB850101384FEA4105F9D1284605F0F8
:103D70003FFE02460B465846394605F0F6FC41EC3C
:103D8000100B06F021FF51EC100B05F05DFE002E2C
:103D9000029057D00298C6F1000AB0FBF5F04FF040
:103DA000000B0519019808EB000717E0CAB2520092
:103DB00052FA81F14BF66522C0F6000202EB410196
:103DC000A1F1C0040399062208230094FFF7C2FC66
:103DD0000BF1010BB3450AF1010A33D06FEA0B0076
:103DE000801909D00120514600EB800001314A1CA6
:103DF0004FEA4000F8D100E00120B5FBF0F24CF6AC
:103E0000CD400BFB0871CCF6CC40A2FB000308B2FE
:103E1000D90801EB8101A2EB4101B8F1060F41F095
:103E20003001C3D0B8F1080FD2D14BF69F42C9B2CE
:103E3000C0F6000202EB0111A1F5007403990822FB
:103E40001023C2E7019C701C10FB0840B8F1060F5C
:103E500000B20CD0B8F1080F15D14BF69F41C0F657
:103E6000000101F1E00703990822102308E04BF656
:103E70006521C0F6000101F15407039906220823C9
:103E80000097FFF767FCB9F1000F54D0B01C4BF658
:103E9000652A4BF69F4B10FB0845C9F10006002729
:103EA000C0F6000AC0F6000B13E000BFCAB2520011
:103EB00052FA81F10AEB4101A1F1C00403990622F3
:103EC00008230094FFF746FC01374F4506F1010631
:103ED00031D0F84310EB09000AD00120314600BF71
:103EE00000EB800001314A1C4FEA4000F8D100E0AD
:103EF0000120029A07FB0851B2FBF0F24CF6CD40CC
:103F0000CCF6CC40A2FB000308B2D90801EB81013A
:103F1000A2EB4101B8F1060F41F03001C6D0B8F173
:103F2000080FD1D1C9B20BEB0111A1F500740399AF
:103F300008221023C5E706B0BDEC028B01B0BDE836
:103F4000F08F00BF00BF00BF0000000000000000B5
:103F50002DE9F04F83B0924601919AF800100022AB
:103F600000298DF80A20ADF808203DD04BF67014DA
:103F7000A0F11009002502AEC0F600044FF0230B9B
:103F8000002015E02746E8B2082101EBC00020F030
:103F9000080048440199033700B21022102300970B
:103FA000FFF7D8FB00200135E9B21AF80110D9B1AA
:103FB0003154B8B120780028E4D04FF000082746EB
:103FC0003846314605F00FFB0028DCD008F1010827
:103FD0005FFA88F000FB0BF1615C10FB0B470029D6
:103FE000EED1D0E70130DEE703B0BDE8F08F00BFCF
:103FF0002DE9F04FC3B00DF10C0A14468B4606466E
:104000004CAA50461946029206F090F89DF80C1002
:1040100051B34BF665284BF69F490020C0F60008C7
:10402000C0F60009002710E001EB410108EB410157
:10403000A1F1C0055946062208230095FFF78AFB27
:104040000137F8B21AF8001071B100FB0460062CB9
:1040500000B2E9D0082CF3D109EB0111A1F50075EC
:10406000594608221023E8E743B0BDE8F08F00BFAF
:104070007F2898BF3F2900D970476FF0700301F087
:10408000070203EA011140F21C13C2F200031944B3
:104090004FF0010C0B5C0CFA02F21A430A54704701
:1040A0007F2898BF3F2910D86FF0700240F21C1390
:1040B00002EA0112C2F200031A44105C01F0070187
:1040C000C840C0071CBF012070470020704700BFD8
:1040D0002DE9F04F85B0994223D113469042B8BFE5
:1040E0000346C8BF024601F00700012740F21C1634
:1040F00007FA00F0CF08C2F2000606EBC71712B2AB
:1041000005E000BF01331BB2934200F340813F2919
:10411000F8D89EB27F2EF5D81EB2BD5D0543BD55C1
:10412000F0E7904226D11A469942B8BF0A46C8BF66
:104130000B4640F21C164FF0010C6FF07007C2F2F4
:1041400000061BB205E000BF511C0AB29A4200F300
:104150001E817F28F8D895B23F2DF5D815B207EA11
:104160000515354402F00704295C0CFA04F42143D8
:104170002954E9E702DD94461E4603E084460E46D4
:104180001046194633460C468E42C4BF5B42644219
:1041900022B21DB2521BA0EB0C07BA42CDE901724C
:1041A00002DD1A46A14603E062469C46814620464F
:1041B000DDE901730024BB424FF00005C8BF0125B3
:1041C0008E42C8BF01242C40012CCDE9036409D1E3
:1041D0005542AEB23F2E3BD81FFA8CF6802E664673
:1041E00022D335E08E4209DD95B27F2D30D8CCF157
:1041F0000005AEB2402E164616D329E0DDE9014394
:1042000095B2A34207DD049C3F2D21D81FFA8CF5FF
:10421000802D1546E3E7049C7F2D19D81FFA8CF5F5
:104220003F2D6546164613D82FB26FF0700303EA90
:10423000071340F21C17C2F2000736B23B4405F0E8
:1042400007054FF001089F5D08FA05F53D439D55B0
:104250000FFA82FA0FFA89FED64540F39880A9EB4F
:104260000202A0EB0C039D1AC2EB43064FEA43087F
:104270004FF6C070009515E06FF0700404EA02126A
:1042800040F21C14C2F20004224452445478012526
:1042900005FA03F3009D2343049C53703E44DE451E
:1042A000DA4674D033B2B3F1FF3F4746C4BF6F0064
:1042B0000CF1010C0AF1010B24B30AEA000383425A
:1042C000ECD11FFA8CF37F2BE8D86FEA0A030720A2
:1042D0001BB220EA0A026FF0700000EA031340F2FA
:1042E0001C10C2F200000FFA8CF9034413F80940C5
:1042F000012000FA02F22243049C03F809204FF641
:10430000C070CBE7039A8A420EDD4FF680721BEA3B
:10431000020FC3D1CCF100039AB23F2ABED81AB221
:1043200003F00703A8E700BFDDE901329A421FDD71
:104330001FFA8CF27F2AB1D81BEA0002AED16FF0CF
:10434000700000EA0B1440F21C10C2F200000FFAD9
:104350008CF204440BF0070914F802A0012000FAC3
:1043600009F343EA0A03A354049C4FF6C07095E78F
:104370004FF680721BEA020F90D11FFA8CF23F2A8F
:104380003FF68CAF0FFA8CF20CF0070374E705B020
:10439000BDE8F08F2DE9F047089F02EB000C7FB3DA
:1043A000844540F39D8040F21C190B444FF0010EF0
:1043B0006FF07008C2F20009824606E00AF1010AB5
:1043C0000FFA8AF0844540F38B808B42F6DD1FFAAA
:1043D0008AF60A460F4603E001373AB29342EDDD12
:1043E0007F2EF9D8BCB23F2CF6D808EA02124A4414
:1043F00007F00704155C0EFA04F42C431454EBE7A1
:10440000844534DDCD18013D01F0070201242EB2B0
:1044100005F0070704FA02FE04FA07F8F40840F270
:104420001C16CA08C2F2000606EBC2191FFA85FA6A
:1044300006EBC4160546074604E000BF01373DB24F
:10444000AC4514DD3F29BCB298BF7F2C05D819F8C4
:10445000052042EA0E0209F80520BAF13F0F98BF85
:104460007F2CEBD8725D42EA08027255E6E703EB57
:1044700001098945D8BFBDE8F087ACF1010540F2DC
:104480001C180FFA85FA4FF0010C6FF0700EC2F293
:104490000008ADB20E4603E001310EB2B1451FDD9A
:1044A0007F288FB298BF3F2F09D80EEA06134344E6
:1044B00001F007041A5C0CFA04F422431A547F2D0D
:1044C00098BF3F2FE8D80EEA0613434401F00702D5
:1044D00013F80A400CFA02F2224303F80A20DBE741
:1044E000BDE8F0872DE9F04F87B0129FDDE9105449
:1044F000002FADF81600ADF81820ADF81A50ADF841
:104500001010ADF81230ADF8144000F08A808242ED
:104510000746B8BF1746AF42A8BF2F468B420E468C
:10452000B8BF1E46A642A8BF264682420196C8BF13
:104530001046A842D8BF28468B42C8BF1946A142A0
:10454000D8BF214604AA09B200B20DF116090391A1
:10455000009005E00298013007B2009887425DDCC8
:104560000297DDF804B038B207E000BF0BF101019B
:104570000FFA81FB03998B45ECDC0FFA8BF54FF0BA
:10458000020E0024002703E00EF10104032C29D0C1
:10459000714632F914C00FFA81F8A64632F9184074
:1045A000AC454FF00001C8BF0121AC424FF0000AFA
:1045B000D8BF4FF0010A91EA0A0FE5D139F9181076
:1045C00039F91E30A5EB0C06C91A7143A4EB0C0691
:1045D00091FBF6F119448142C2BFB9B2B1FA81F13F
:1045E0004F09D1E73906C1D0029989B27F29BDD8D8
:1045F0001FFA8BF13F29B9D86FF0700340F21C17F6
:1046000003EA0513C2F200073B440BF007011F5CED
:10461000012606FA01F139431954A7E707B0BDE8AE
:10462000F08F06460F4690469946FFF751FD3046FB
:1046300039462A462346FFF74BFD404649462A465F
:10464000234607B0BDE8F04FFFF742BD2DE9F04F1C
:1046500091B00293134680467F2817D8581882B22B
:104660003F2A13D802B26FF0700707EA021240F235
:104670001C17C2F200073A4400F00700012612F8A6
:10468000087006FA00F0384302F80800B8F17F0F0E
:1046900017D8C81A82B23F2A13D802B26FF0700737
:1046A00007EA021240F21C17C2F200073A4400F077
:1046B0000700012612F8087006FA00F0384302F8E5
:1046C00008003F2916D803EB080082B27F2A11D8D0
:1046D0006FF0700740F21C1607EA0117C2F20006DD
:1046E00000B2374401F0070201253E5C05FA02F2F0
:1046F00032433A543F2916D8A8EB030082B27F2AEE
:1047000011D86FF0700740F21C1607EA0117C2F2C9
:10471000000600B2374401F0070201253E5C05FAAD
:1047200002F232433A5402980E9130B35842984202
:1047300023DA40F21C170E994FF0010C6FF0700E47
:10474000C2F2000704E000BF013006B29E4214DA54
:10475000B8F17F0FF8D84618B5B23F2DF4D835B26E
:104760000EEA05153D4406F0070615F808200CFA78
:1047700006F6164305F80860E6E70E99002B00F0F0
:10478000B681C3F101004FF0FF3C00244FF0020A54
:10479000CDF8048010E000BFDDE90720109B099CE4
:1047A00000EB4200DDF804800130ACF1010C9C42CA
:1047B0000AF1020A80F29B81013407B2581E02B24C
:1047C0000897002F48BF1846234658BF9B1A04EB92
:1047D00008021FFA82F900EB010EB9F17F0F1FFAF0
:1047E0008EFB07930B9298BFBBF13F0F14D80FFAC3
:1047F0008EF26FF070060B9B06EA021240F21C1656
:10480000C2F200061BB232440EF00707D65C012547
:1048100005FA07F73743D75405B2621805EB0800CD
:10482000069292B2CDE903EB3F2A1FFA80FB059274
:104830000D9098BFBBF17F0F14D8069B6FF07007E7
:1048400018B20D9A07EA001040F21C17C2F20007D6
:1048500012B2384403F00703875C012606FA03F31B
:104860003B438354A8EB04000A9080B2A1EB050EF1
:104870007F281FFA8EF60F9098BF3F2E16D80FFA9A
:104880008EF010966FF070060A9A06EA001040F259
:104890001C16C2F2000612B230440EF00703865C0A
:1048A000012707FA03F33343109E8354081BA8EB38
:1048B000050283B23F2B1FFA82F8109509940C92DF
:1048C00098BFB8F17F0F17D80C9C02B2354626B2BC
:1048D0006FF0700404EA021240F21C14C2F20004E9
:1048E0002244945D00F007070094012404FA07F7BE
:1048F000009C274397552E46B9F17F0F98BF3F2E56
:1049000016D80FFA8EF26FF070050B9C05EA0212B2
:1049100040F21C15C2F2000526B22A440EF0070729
:1049200012F806E0012404FA07F747EA0E07975544
:104930003F2B98BFBBF17F0F13D802B26FF0700707
:104940000D9B07EA021240F21C17C2F200071BB2CD
:104950003A4400F00700D75C012606FA00F038431D
:10496000D0540F987F2817D804983F2814D8039B59
:104970006FF0700718B20A9A07EA001040F21C178D
:10498000C2F2000712B2384403F00703875C012625
:1049900006FA03F33B43835405983F2898BFB8F1C8
:1049A0007F0F14D8069B6FF0700718B20C9A07EAB5
:1049B000001040F21C17C2F2000712B2384403F094
:1049C0000703875C012606FA03F33B4383540298EE
:1049D00000283FF4E1AE109A504200B2824243DD1B
:1049E0000B9A0FFA82FE0A9A17B203E0109A01306E
:1049F000824239D04218B9F17F0F96B298BF3F2E4C
:104A000019D814B26FF0700303EA041440F21C13B7
:104A1000C2F200031C4402F0070514F80E30614690
:104A2000CC464FF0010909FA05F5E1468C460E998E
:104A30002B4304F80E300F9B7F2B98BF3F2ED5D809
:104A400013B26FF0700404EA031340F21C14C2F2B4
:104A50000004234402F00702DC5D012505FA02F29E
:104A60002243DA55C2E700BF0C9800260FFA80FEF9
:104A70000D980FFA80F903E00136B2453FF48CAE91
:104A80000CEB06020A44B8F17F0F97B298BF3F2F94
:104A900013D815B26FF0700000EA051540F21C1033
:104AA000C2F20000054402F0070415F80E000123CD
:104AB00003FA04F4204305F80E00BBF17F0F98BF02
:104AC0003F2FD9D810B26FF0700303EA001040F204
:104AD0001C13C2F20003184402F0070210F8094048
:104AE000012303FA02F2224300F80920C4E711B0BF
:104AF000BDE8F08F00BF00BF2DE9F04F81B02DED74
:104B0000028B8EB0834603FB03F098461646894617
:104B1000059004F05CFF074606FB06F00D46089082
:104B200004F055FFC8F10006044630468A4604F0FA
:104B30004EFF9FED7D0B53EC102BCDE9002304F0CD
:104B40006DFD02460B46204651460A94CDF824A03E
:104B500004F00BFE3A462B460397029504F05EFDE7
:104B600004F09EFF0D901A985C4640F21C1B002832
:104B7000C2F2000B18BFB8F1000F40F0958208EBAD
:104B8000090081B2802C4FF0000238BF0122402979
:104B90004FF0000138BF01210A400023012A0FFA1B
:104BA00080FA00F0070E0AD16FF0700505EA0A15C9
:104BB0005D440126285D06FA0EF606432E55A9EB44
:104BC0000800802C4FF0000685B238BF0126402D2A
:104BD00038BF012306EA0305012D06B200F00703E2
:104BE0000C940ED16FF0700404EA06140C980BEBD1
:104BF00004074FF0010C385C0CFA03F10C9C0843DD
:104C00003855059852B16FF0700101EA0A11594404
:104C100001270A5D07FA0EF73A430A5555B16FF0BE
:104C2000700101EA0611594401270A5D07FA03F3EE
:104C30001A430A5504F0CBFE064640460C4604F0E3
:104C4000D7FE9FED3B0B53EC102BCDE9063204F061
:104C5000E5FCDDE9093204F088FD3246234604F024
:104C600065FE002840F008810D98059D08EE100AA9
:104C70004FF0000A002623E00D9F0B980FFA87FAE9
:104C800000EE100A0AF10100B8EEC00A684338EEDF
:104C9000008A04F09CFE064640460C4604F097FE4F
:104CA000DDE9063204F0BAFCDDE9093204F05DFD0D
:104CB000324623463E4604F06FFE002800F0DD80B9
:104CC000032000EB4A000221089AB5EE408A00FB5F
:104CD00005F3A1EB4801F1EE10FAB5EE408A02FBB4
:104CE00001F1C8BFA8F10108F1EE10FAC8BF00FB3E
:104CF00005131A980FFA88F8002806F101060B939D
:104D00000D9649D0C8F1000001B2884544DDDDE9C7
:104D10000C32D0189D1A0FFA80FE0FFA85FA86B26F
:104D2000A8B20CE000BF00BF000000000000E03FA0
:104D3000000000000000E0BF013188452CD001EBED
:104D400009057F2EACB298BF3F2C10D82FB26FF060
:104D5000700303EA07175F4405F0070217F80E30E7
:104D60004FF0010C0CFA02F21A4307F80E207F28CC
:104D700098BF3F2CE0D82AB26FF0700707EA021202
:104D80005A4405F0070312F80A40012707FA03F313
:104D9000234302F80A30CFE7DDE90C1008EB0903E2
:104DA00000EB010C1FFA8CFABAF17F0F1FFA83FE99
:104DB00098BFBEF13F0F10D819B26FF0700000EA33
:104DC00001110FFA8CF4594403F007050E5D012020
:104DD00000FA05F50D9835430D550C99A9EB080619
:104DE0000D1AA9B27F29B4B298BF3F2C18D837B298
:104DF0006FF0700000EA07172AB25F44CDF810C0C8
:104E000006F0070C17F802B0012000FA0CF0DDF8EC
:104E100010C040EA0B0040F21C1BC2F2000BB85459
:104E20007F2998BFBEF13F0F0ED818B203F00702DA
:104E30006FF0700303EA001029B25844435C012765
:104E400007FA02F21A434254059DBAF17F0F98BF48
:104E50003F2C3FF611AF30B26FF0700303EA001041
:104E60000FFA8CF1584406F00702435C012707FA59
:104E700002F21A434254FFE60026B8F1010FC0F2D5
:104E80000D8130B204F0A3FDDDE9002304F0C6FB80
:104E9000DDE90232B24606460C4604F066FC089D87
:104EA000CDE90A10A8F1010000FB05F1484304F028
:104EB0008EFD07460D91DDE90A103246234604F0C7
:104EC00054FC0D9B3A4604F0A9FB064605980C4697
:104ED000684304F07CFD02460B46304621465746A7
:104EE00004F03DFC04F0DCFD00EE100AC8F1010006
:104EF0001FFA88FC4FF001086FF0700A0A900EE06C
:104F000009980D9F01EE100A0A98B8EEC11A0130F7
:104F10000A900B9830EE010A012840F3BF80B5EEED
:104F2000400A0320F1EE10FAA0EB4C0004DD0899D2
:104F30000D9748430BE000BF39B2022202EB41015A
:104F4000089A01375043059A0D9701FB020009901A
:104F50001A98CDF82CC00028ACF1010C3CD00B986D
:104F6000C0F10100604537DA0A9802B2DDE90C01B0
:104F70000B18471A0FFA83FE38B29EB2BCB202E099
:104F80000132624528DA02EB09037F2E9FB298BFF7
:104F90003F2F11D819B20AEA0111594403F007054D
:104FA00011F80EB008FA05F545EA0B0540F21C1B96
:104FB000C2F2000B01F80E507F2C98BF3F2FDFD8B4
:104FC00019B20AEA0111594403F007030D5C08FA0B
:104FD00003F32B430B54D3E7DDE90C020CEB09057B
:104FE0001718ACB23F2CBEB298BF7F2E0CD828B297
:104FF0000AEA001039B2584405F00703425C08FA87
:1050000003F313430D9A43540C98CDE90676A0EBB5
:10501000020EA9EB0C0086B23F2E1FFA8EF398BF4A
:105020007F2B12D801B20AEA01110FFA8EF7594408
:1050300000F0070211F807B008FA02F242EA0B0288
:1050400040F21C1BC2F2000BCA553F2C98BF7F2BAD
:1050500002D93F2E10D953E729B20AEA01110FFAFB
:105060008EF2594405F007038F5C08FA03F33B43C3
:105070008B543F2E3FF644AF07997F293FF640AF50
:1050800001B2069A0AEA011112B2594400F007006F
:105090008B5C08FA00F01843885431E70EB0BDEC81
:1050A000028B01B0BDE8F08F01206FF0700104E0C9
:1050B000013632B24245BFF662AD7F2CF8D806EB1E
:1050C000090293B23F2BF3D813B201EA03135B44F6
:1050D00002F007021D5D00FA02F215431D551D5D29
:1050E0002A431A55E4E700BF2DE9F04F81B02DEDBA
:1050F0000A8B8CB0209F814610461C4615460891AD
:1051000004F076FC41EC180B9FEDCD1BB0EE480A85
:10511000F0EE680A05F0A0FB51EC100B9FEDCA0BF6
:1051200053EC102BCDE90A3204F091FB9FEDC80B34
:1051300053EC102B09929A4604F017FB04F065FC1F
:10514000BC4202DAA04202DA20E0A04202DA209950
:1051500088421BDCB9F17F0F18D80898284481B227
:105160003F2913D801B26FF0700303EA011140F236
:105170001C13C2F20003194400F00700012211F8C9
:10518000093002FA00F0184301F80900C5F10008DF
:10519000404604F01CFC41EC190B9FEDA91BB0EE3E
:1051A000490AF0EE690A05F057FBDDE90A3251ECD5
:1051B000100B04F04CFB099A534604F0D6FA04F0A5
:1051C00024FC20998C4202DAA04202DA1FE0A042BD
:1051D00001DA88421BDCB9F17F0F18D80898401B10
:1051E00081B23F2913D801B26FF0700303EA0111B5
:1051F00040F21C13C2F20003194400F00700012220
:1052000011F8093002FA00F0184301F809009FED87
:105210008C0BB0EE481AF0EE681A05F01DFBDDE9C4
:105220000A3251EC100B04F012FB099A534604F0B9
:105230009CFA04F0EAFB20998C4202DAA04202DADE
:105240001EE0A04201DA88421ADC08983F2817D8ED
:1052500005EB090081B27F2912D8089F6FF0700317
:1052600007F0070103EA071340F21C17C2F2000718
:1052700000B23B4401221F5C02FA01F13943195488
:105280009FED6F0BB0EE491AF0EE691A05F0E4FAE3
:10529000DDE90A3251EC100B04F0D9FA099A5346B1
:1052A00004F063FA04F0B1FB20998C4202DAA042C8
:1052B00002DA1EE0A04201DA88421ADC08983F2890
:1052C00017D8A9EB050081B27F2912D8089F6FF08B
:1052D000700307F0070103EA071340F21C17C2F23C
:1052E000000700B23B4401221F5C02FA01F139437E
:1052F0001954219800284AD0A84548DA9FED508BD0
:1053000040F21C1701266FF0700BC2F2000705E097
:1053100008F101080FFA88F0A84238DA0FFA88F08D
:1053200004F055FB41EC100BB0EE481AF0EE681A91
:1053300005F092FADDE90A3251EC100B04F087FA1D
:10534000099A534604F011FA04F05FFB20998C424D
:1053500002DAA04202DADBE7A04201DA8842D7DCB7
:10536000B9F17F0FD4D80898404481B23F29CFD8F3
:1053700001B20BEA0111394400F0070011F80920CD
:1053800006FA00F010434B4601F80900C0E7002D73
:1053900000F077834FF0FF31C5F10100079100273E
:1053A00002210691CDF8049013E000BFDDE9021060
:1053B000DDF8049000EB41000799013001390791B5
:1053C000069902310691DDE90415A9420F4680F2E3
:1053D00058830FFA80FB681E7E1C01B2BBF1000FE0
:1053E00048BF284600B2354658BF6D1A059004F0F4
:1053F000EEFA41EC180B30B2B04604F0E8FA41EC9A
:105400001A0BB0EE480AB0EE4A1AF0EE680AF0EE57
:105410006A1A05F021FADDE90A3251EC100B04F0AA
:1054200016FA099A534604F0A0F904F0EEFA20990E
:105430008C4211DAA04211DA32E000BF00BF00BF97
:1054400000000000000000001F85EB51B81E09405D
:105450000000000000806640A04201DA88421FDCA4
:1054600008EB090081B27F291AD80899059A1144DE
:105470008AB23F2A14D80AB26FF0700303EA02120C
:1054800040F21C13C2F2000300B21A4401F00701FB
:10549000135C3E46012707FA01F1374619431154C0
:1054A000B0EE4A0AB0EE481AF0EE6A0AF0EE681A58
:1054B00005F0D2F9DDE90A3251EC100B04F0C7F91E
:1054C000099A534604F051F904F09FFA2099CDE966
:1054D000025B8C4204DA059EA042C34604DA24E053
:1054E000059EA042C34601DA88421EDC0898584453
:1054F00081B23F2919D806EB09018AB27F2A14D854
:1055000002B26FF0700303EA021240F21C13C2F2FF
:10551000000309B21A4400F00700535C3D4601271E
:1055200007FA00F02F461843505470420FFA80F8E3
:10553000404604F04CFA41EC190BF84300B204F079
:1055400046FA41EC1B0BB0EE490AB0EE4B1AF0EEF6
:10555000690AF0EE6B1A05F07FF9DDE90A3251ECC9
:10556000100B04F074F9099A534604F0FEF804F0A5
:105570004CFA20998C4203DAA04203DA21E000BF02
:10558000A04201DA88421CDCA9EB0B0081B27F2922
:1055900017D80899891B8AB23F2A12D80AB26FF02D
:1055A000700303EA021240F21C13C2F2000300B2BD
:1055B0001A4401F00701135C012707FA01F11943AE
:1055C0001154B0EE4B0AB0EE491AF0EE6B0AF0EE51
:1055D000691A05F041F9DDE90A3251EC100B04F0CB
:1055E00036F9099A534604F0C0F804F00EFA2099EF
:1055F0008C4203DAA04203DA22E000BFA04201DAC3
:1056000088421DDC0898A0EB0B0081B23F2917D817
:10561000A9EB06018AB27F2A12D802B26FF070039A
:1056200003EA021240F21C13C2F2000309B21A4448
:1056300000F00700535C012707FA00F018435054AC
:10564000B0EE490AB0EE4A1AF0EE690AF0EE6A1AB4
:1056500005F002F9DDE90A3251EC100B04F0F7F81D
:10566000099A534604F081F804F0CFF920998C424E
:1056700002DAA04202DA20E0A04201DA88421CDC11
:105680000BEB090081B27F2917D80899891B8AB2D0
:105690003F2A12D80AB26FF0700303EA021240F2F6
:1056A0001C13C2F2000300B21A4401F00701135C9C
:1056B000012707FA01F119431154B0EE4B0AB0EE7D
:1056C000481AF0EE6B0AF0EE681A05F0C5F8DDE94D
:1056D0000A3251EC100B04F0BAF8099A534604F060
:1056E00044F804F092F920998C4203DAA04203DADC
:1056F00022E000BFA04201DA88421DDC0898A0EB3E
:105700000B0081B23F2917D806EB09018AB27F2A24
:1057100012D802B26FF0700303EA021240F21C13B7
:10572000C2F2000309B21A4400F00700535C0127DB
:1057300007FA00F018435054B0EE480AB0EE4B1A86
:10574000F0EE680AF0EE6B1A05F086F8DDE90A3231
:1057500051EC100B04F07BF8099A534604F005F85D
:1057600004F053F920998C4202DAA04202DA20E0D8
:10577000A04201DA88421CDCA9EB0B0081B27F2930
:1057800017D8089931448AB23F2A12D80AB26FF06A
:10579000700303EA021240F21C13C2F2000300B2CB
:1057A0001A4401F00701135C012707FA01F11943BC
:1057B0001154B0EE4A0AB0EE491AF0EE6A0AF0EE61
:1057C000691A05F049F8DDE90A3251EC100B04F0D2
:1057D0003EF8099A534603F0C8FF04F016F92099E1
:1057E0008C4203DAA04203DA21E000BFA04201DAD2
:1057F00088421CDC0898584481B23F2917D8A9EB8D
:1058000006018AB27F2A12D802B26FF0700303EA4F
:10581000021240F21C13C2F2000309B21A4400F053
:105820000700535C012707FA00F0184350542198F1
:10583000CDF810B000283FF4B9AD059D454540F3C3
:105840008F800199049A5018891A0FFA80FB0FFA79
:1058500081F98EB287B204E008F10108454500F0F5
:105860007F800FFA88F004F0B2F841EC1C0BB0EE28
:105870004A1AB0EE4C0AF0EE6C0AF0EE6A1A04F026
:10588000EBFFDDE90A3251EC100B03F0E0FF099A5F
:10589000534603F06AFF04F0B8F820998C4203DA0B
:1058A000A04203DA1FE000BFA04201DA88421ADCFE
:1058B0007F2F18D80898404481B23F2913D801B2ED
:1058C0006FF0700202EA011140F21C12C2F20002F3
:1058D000114400F0070011F80B20012303FA00F037
:1058E000104301F80B00B0EE4C0AB0EE4B1AF0EE8C
:1058F0006C0AF0EE6B1A04F0AFFFDDE90A3251ECEE
:10590000100B03F0A4FF099A534603F02EFF04F096
:105910007CF820998C4203DAA04203DA9CE700BFAE
:10592000A04201DA884297DC7F2E95D8089840443F
:1059300081B23F2990D801B26FF0700202EA0111E2
:1059400040F21C12C2F20002114400F0070011F8EC
:105950000920012303FA00F0104301F809007BE756
:1059600001990026481B29440FFA80F80DB28FB226
:105970001FFA80FB05E000BF06980136B0423FF4F5
:1059800015AD079800EB06090FFA89F004F01FF82F
:1059900041EC1A0BB0EE491AB0EE4A0AF0EE6A0A70
:1059A000F0EE691A04F058FFDDE90A3251EC100BF1
:1059B00003F04DFF099A534603F0D7FE04F025F893
:1059C00020998C4202DAA04202DA1FE0A04201DAFA
:1059D00088421BDCBBF17F0F18D80898484481B27D
:1059E0003F2913D801B26FF0700202EA011140F2B0
:1059F0001C12C2F20002114400F0070011F8082046
:105A0000012303FA00F0104301F80800B0EE4A0A3F
:105A1000B0EE481AF0EE6A0AF0EE681A04F01CFFC5
:105A2000DDE90A3251EC100B03F011FF099A5346DD
:105A300003F09BFE03F0E9FF20998C4202DAA042BA
:105A400002DA99E7A04201DA884295DC7F2F93D8E9
:105A50000898484481B23F293FF68EAF01B26FF0FB
:105A6000700202EA011140F21C12C2F2000211445B
:105A700000F007004A5D012303FA00F01043485587
:105A80007AE70CB0BDEC0A8B01B0BDE8F08F0000E6
:105A900010B500F0C1F96B20802100F057F86420A8
:105AA000FCF718FF6B20002100F050F81B20182194
:105AB00000F04CF81C20002100F048F819201321B8
:105AC00000F044F81A20042100F040F838200021AA
:105AD00000F03CF86A20002100F038F82320002173
